{
  "contractName": "TodoList",
  "abi": [
    {
      "constant": true,
      "inputs": [],
      "name": "taskCount",
      "outputs": [
        {
          "internalType": "uint256",
          "name": "",
          "type": "uint256"
        }
      ],
      "payable": false,
      "stateMutability": "view",
      "type": "function"
    }
  ],
  "bytecode": "0x608060405260008055348015601357600080fd5b506084806100226000396000f3fe6080604052348015600f57600080fd5b506004361060285760003560e01c8063b6cb58a514602d575b600080fd5b60336049565b6040518082815260200191505060405180910390f35b6000548156fea265627a7a72315820fe67d27facca5ecbf597e8475a79294bb98e29fa6903995bbf92a550970cb30564736f6c63430005100032",
  "source": "// Solidity version\r\npragma solidity ^0.5.16;\r\n\r\n// Declares smart contract\r\ncontract TodoList {\r\n  //Tracks amount of tasks in smart contract\r\n  // State variable - written to the blockchain (like class variable)\r\n  uint public taskCount = 0;\r\n}\r\n",
  "sourcePath": "C:/Users/david/code/EtherBlockchainIntro/contracts/TodoList.sol",
  "compiler": {
    "name": "solc",
    "version": "0.5.16+commit.9c3226ce.Emscripten.clang"
  },
  "schemaVersion": "3.3.3",
  "updatedAt": "2021-01-13T02:28:18.579Z",
  "networkType": "ethereum",
  "devdoc": {
    "methods": {}
  },
  "userdoc": {
    "methods": {}
  }
}